:10000000002000205D01000089010000890100003E
:1000100089010000890100008901000089010000B8
:1000200089010000890100008901000089010000A8
:100030008901000088010000890100008527000077
:1000400019280000712700008901000089010000C3
:1000500089010000890100007B2700008901000060
:100060008901000089010000890100008901000068
:10007000F5270000890100008901000089010000C6
:100080008901000089010000890100008901000048
:100090008901000010B5064C2378002B07D1054BD1
:1000A000002B02D0044800E000BF0123237010BDE4
:1000B00000010020000000006C670000044B10B538
:1000C000002B03D00349044800E000BF10BDC04628
:1000D00000000000040100206C6700004022920232
:1000E0009A1A92467047C046174B002B00D1134B0B
:1000F0009D46FFF7F3FF00218B460F461348144A35
:10010000121A05F0B9FA0E4B002B00D098470D4B90
:10011000002B00D098470020002104000D000D485E
:10012000002802D00C4800E000BF05F077FA20005C
:10013000290003F0DFFE05F05BFAC046000008006E
:10014000000000000000000000200020000100204E
:10015000B4060020000000000000000006488047B0
:100160000649074A074B9B1A03DD043BC858D05089
:10017000FBDCFFF7B9FF0000612700007867000093
:100180000000002098000020FEE7C046254B2649CD
:10019000DA6A10B50A40802189018A4238D024D811
:1001A000802109018A4224D0802180204901000257
:1001B0008A4213D0E022D868D200104080229200F8
:1001C000904228D017D8002827D00138FF38421E87
:1001D0009041164A40421040154A80181968C903D8
:1001E000490F013105F0EEFA10BD8021C9048A42A1
:1001F000E0D11048F2E7C022920090420FD00E4AA0
:100200008018421E90410D4A404210400C4AE4E7DB
:1002100080200002E2E70B48E0E70B48DEE70B48EE
:10022000DCE7C04600800C40003C0004C04A9BFF55
:1002300040B5640000366E0100FCFFFFC090BFFEB9
:10024000406F4001C0D8A700804F1200809FD500AA
:1002500010B5FFF79BFF0F22024B5B681340D8409D
:1002600010BDC04600800C4072B6BFF35F8FBFF375
:100270004F8FBFF36F8F01207047036883F310889F
:10028000BFF35F8FBFF34F8FBFF36F8FBFF35F8FEE
:10029000BFF34F8FBFF36F8F704737B50400EFF395
:1002A00010830193FFF7E0FF051E00D0256801A829
:1002B000FFF7E3FF28003EBD37B504000D00EFF364
:1002C00010830193FFF7D0FF002800D0256001A81C
:1002D000FFF7D3FF37BD37B50500EFF31083009369
:1002E000FFF7C2FF002805D100246846FFF7C5FFCD
:1002F00020003EBD2800FFF7D0FF041EF4D0EFF32E
:1003000010830193FFF7B0FF002808D02800FFF703
:10031000C4FFFFF7C2FF01002800FFF7CDFF01A8CF
:10032000FFF7ABFFE1E710B50A780478030000207F
:10033000944209D15C784A78944205D198788B78B8
:10034000C01A43425841C0B210BD027803000120D8
:10035000002A06D15A78002A03D19878431E984182
:10036000C0B2704710B5CA78C47803000020944228
:1003700002D11800FFF7D7FF10BD07B50100027CBE
:10038000007B01AB1870487B5870887BDA709870DE
:100390000120002A06D018000C31FFF7E3FF43428A
:1003A000584101300EBD704700230373704710B5EC
:1003B00008230124064A484041082040404210409A
:1003C000013B4840DBB280B2002BF5D110BDC046E6
:1003D00001A0FFFF704770470200002310B50549D8
:1003E0005C5CD8B2944203D00133042BF8D1FF20D7
:1003F00010BDC046645D000070477047704770478D
:10040000704770B5050000232E35EB56040001330C
:100410000AD0436A5B681A7D002A05D130331B7805
:10042000002B01D1FF332B70104B2E21625E9A42BC
:1004300007D1230000222F331A70236820001B6984
:10044000984723002D331B7801207F2B0CD90023E4
:10045000EB56013308D123002F331B785BB2002BFE
:1004600002DC237BDB08984370BDC046FF0100001F
:1004700070477047704770470300FF20032B01D877
:10048000014AD05C7047C046645D000000207047A0
:100490000823002800D0F733180070470838431E9F
:1004A00098414042C0B2704703000020052905D89A
:1004B000D888052359430130401880B27047FF2087
:1004C0007047FF2070470123002800D0FE3318003A
:1004D00070470138431E98414042C0B27047054BF7
:1004E0001B681A7D920703D40C22197D0A431A75E2
:1004F0007047C0460002002010B5036964215C68A3
:100500004C34A08A323005F0E7F9237CC0B298421F
:1005100080414042C00110BD7047704707220B0068
:10052000017B134091431943017370470023037308
:10053000704710B5FFF750FF10BD704710B52D285C
:1005400001D1012359400F2301220409184015331A
:1005500082406343002903D003495B181A6110BD30
:1005600001495B185A61FAE70060004010B5027E4D
:100570000300002A07D0DB7D0021807D002B00D105
:100580000121FFF7DBFF10BD030010B5D97D807D91
:10059000002900D00121FFF7D1FF10BD70B5FF2366
:1005A0000500C26B04009A433835002A03D00123AA
:1005B00003772B7070BD03003C331E7833005A1E46
:1005C00093410377002E01D00123F2E70430FFF7B7
:1005D000DBFF20002E702030FFF7D6FFEAE710B5D2
:1005E0000400FFF7DBFF201DFFF7C0FF20002030D5
:1005F000FFF7BCFF10BDFF2310B5C26B04009A4388
:1006000006D10430FFF7C0FF20002030FFF7BCFF09
:1006100010BD70B50E4A1379002B0BD043424341F5
:10062000FF215B428B430231FF315B18D1880B43C2
:100630009BB2D3800C235843064C1218A569D3688B
:100640002B4203D01369002B00D09847256270BD60
:1006500000020020FC600040F0B5002A08D02424ED
:1006600001254443194E8D40A419002B1CD025614F
:1006700024244443154D6419072917D80F268F00E9
:10068000BE406568B5431600BE4035436560002A2C
:1006900009D101328A40110024224243002B11D09B
:1006A0000A4BD2181161F0BD6561E1E70E000F271A
:1006B000083EB600B740A568BD431700B7403D43AC
:1006C000A560E4E7014BD2185161ECE700600040FF
:1006D000F7B5FA27042540260190BF003900701CA9
:1006E00005F070F8019B2C000135EDB2984203D261
:1006F00076000F2DF2D12C0001212402054B064A71
:100700000C43906A084202D0013B002BF9D11462DD
:10071000F7BDC0463175000000020020074B1A6A81
:10072000002A0AD00122196A114206D0996A890763
:1007300003D4996A1142FCD15A627047000200202A
:1007400010B50400FFF7EAFFA37D5A1ED2B2FD2ABE
:1007500001D80133A375E37DFF2B01D00133E3758D
:1007600010BD094B09481A0098321168A4330140A2
:1007700011608021C90019601168054801401160AD
:10078000802212011A60704700600040FFF0FFFFF6
:10079000FF0FFFFF30B50B4B0B4C450000290DD070
:1007A00018180A335B5B01792362002A05D0012304
:1007B0008B4006490A681A42FCD030BD16335B5B99
:1007C0002362FAE7645D000000800C402C800C403E
:1007D00037B504000D00EFF310830193FFF744FDDC
:1007E00000280AD02000FFF758FD01002800FFF77D
:1007F00063FD29002000FFF75FFD01A8FFF73DFD25
:1008000037BDF0B5050085B00C00EFF31083019300
:10081000FFF72AFD00281ED002222E002800237A8E
:1008200093432372FFF739FD00281CD0043884421B
:1008300016D13000FFF74FFD201DFFF72EFD0028D9
:1008400009D04368A2681B0A120A9B18190A43714F
:100850001B0C8171C37101A8FFF70FFD05B0F0BD3E
:10086000061D3000DEE7EFF310830293FFF7FCFC78
:10087000002810D004350434EFF310830393FFF7FE
:10088000F3FC061E0BD103A8FFF7F7FC002E02D0E5
:100890003000FFF720FD02A8FFF7EFFCDBE72800A0
:1008A000FFF7FBFC061EEED00027844200D12F008C
:1008B0003000FFF7F2FC3500002FF3D03E00E2E7F6
:1008C0008B68F7B51B0A05000C00002B3DD0EFF339
:1008D00010830193FFF7C8FC002832D00223227A4C
:1008E000280013432372FFF7D8FC271D0100061EC2
:1008F00014D04B680E1F1A0AA368311D1B0A9A42B6
:100900000CD29B1A180A63721B0CA072E3720800C7
:100910000D00FFF7C2FC011EEBD106003800FFF707
:10092000CBFC39002800FFF7C7FC002E09D0B368C4
:10093000A2681B0A120A9B1A190A73721B0CB17265
:10094000F37201A8FFF799FCF7BD04310430FFF7FB
:100950003FFFF9E7F8B5154E040030002C300D00CC
:10096000FFF79BFC00280FD00027043883681B0A80
:10097000FF18844206D00430FFF78FFC002803D014
:100980000438F3E7BD420FD901232C362100300093
:100990002373FFF736FF2A0A65722D0C2100300001
:1009A000A272E572FFF78CFFF8BDC046000200207E
:1009B000F8B5114D0026EC6E2C35270028001837AD
:1009C0002100FFF71EFF39002800FFF71AFF7022F1
:1009D0005242627271322800A272E6722100FFF761
:1009E0006FFF64232134390028006670A6702370DD
:1009F000FFF766FFF8BDC0460002002070B5064D47
:100A0000064C3C352C3429002000FFF7FAFE290063
:100A10002000FFF755FF70BD80020020000200207B
:100A200070B5037D04005A1C0275C31864209B7BBB
:100A30000D0058430A2104F0C5FE020A6072000C42
:100A4000E07221002800A272FFF73AFF0123207D07
:100A5000184070BD73B504000E00EFF3108300253D
:100A60000193FFF701FCA8421AD0227D237B9A4212
:100A700005D231002000FFF7D3FF050010E0627BB4
:100A80002575002AF5D0637D0133DBB263759A4288
:100A9000EFD820000849082222310C3004F068FE0B
:100AA00001A8FFF7EAFB2000002D02D0FFF75EFD52
:100AB00073BDFFF769FDFBE7645D0000037B70B564
:100AC00004005807400F02380A0004281AD804F01E
:100AD00065FE221A031A22001B0719D40325E38995
:100AE000053B9BB2002B08D063721B0AA372002344
:100AF00021001000E372FFF7E3FE236829002000C5
:100B0000DB68984770BD1B07FCD40525E389E9E73E
:100B100005230225E8E70125EFE7242370B5C46823
:100B20000120627B11094B431F495B180F211B6891
:100B30000A40D340227B03401107C90F99422FD0AE
:100B4000D9001300073083430B4302215D076D0F6B
:100B5000EA1E8A43D2B22373002A03D0012D15D195
:100B6000042504E0034211D0032D1AD006250F4EB0
:100B700021002C363000FFF744FE0022052321001F
:100B800030006372A272E272FFF79AFE237B5B076A
:100B90005B0FAB4204D0236829002000DB68984734
:100BA00070BD0D00E3E7C0461C600040000200205D
:100BB00014224243054B10B59B18DC6D002C04D069
:100BC0005A6E511C1A6E5966A04710BD8002002053
:100BD000F8B514234343164D0400EB18DF6D0E00E7
:100BE0000120002F08D05A6E11181A6E2000596685
:100BF000B84701235840C0B214236343ED18AA6ECE
:100C00000125013A002800D102350A4B2101002EAE
:100C10000CD0986841180120A040D8618868064B24
:100C2000184013012B4303438B60F8BDD868F1E7EC
:100C30008002002000200C4008C0FFFF10B50124F6
:100C40008C408A400368A3431343036010BD044BE8
:100C50005A6DD20702D41A6D0242FCD17047C046C9
:100C600000800C4003000005000F013870B50D0036
:100C7000092813D804F092FD051323121216191C2B
:100C8000122000200F4CDB03DE0E002801D0FFF7FE
:100C9000DEFF2A0031002000FFF7D0FF70BD0020EA
:100CA000094CF0E70120094CEDE71020084CEAE779
:100CB0008020084C4000E6E70020074CE3E70020D6
:100CC000064CE0E708800C4044800C4058800C4003
:100CD00060800C4064800C4078800C4040800C4068
:100CE00070B504000D0015480121FFF7BBFF0F226E
:100CF000210020091140002D04D12B000E3AFFF7EE
:100D0000ABFC70BD022D02D101232A00F7E724239A
:100D1000434324070AD40A4C1B195B688C00E34048
:100D20001A40042AEDD000230422E8E7044C1B19E2
:100D30000C00083C9B68A400F1E7C0460082040058
:100D4000006000400F231840013800B5052804D882
:100D500004F024FD052233460353002000BD284B38
:100D6000284ADB6A02201340802292019342F5D088
:100D70000BD88022001812019342EFD0802201305C
:100D800052019342EAD10238E8E780220520D204DA
:100D90009342E3D10630E1E70321194A936A0B40FD
:100DA000013B022B03D8184A6A32D05CD6E7936A1B
:100DB0000120DB03D2D50B30D0E70C2210490220F2
:100DC0008B6A1340082BC9D004309342C6D0033835
:100DD000042BC3D08B6A0238DB02BFD51000BDE7FD
:100DE0003022074B03209B6A1340102BB6D0203BC8
:100DF0001800434258410130B0E70720AEE7C04633
:100E000000800C40003C0004645D0000002800D11C
:100E100062B6704707B50100EFF3108072B6054B5C
:100E20005A6D52185A655B6D0193FFF7EFFF0198F9
:100E30000EBDC0460003002070B504000020FFF77F
:100E4000E9FF05000020FFF7E5FF401BA042F9D3B2
:100E500070BD10B5020000210148FFF7EFFE10BD84
:100E6000000008400D4B0E4AC3600023036042603F
:100E70000C4A83604361C36482640B4A43659042B9
:100E800002D00A49884200D103650023836590425D
:100E900002D0064A904200D1C3657047AA0E0000F6
:100EA00005100000F91F000000C0004000C4004011
:100EB0000123416450300370704770B51400EFF3A4
:100EC000108572B613000021483351641970D36A3B
:100ED00091638B4202D02000526B98472800FFF7A5
:100EE00095FF636D0120013B636570BD03000849F8
:100EF000002B0CD0013B88221202003253430A68B7
:100F0000D80AD20A5043800901D00138FDD8704771
:100F100004000020F8B50D4B1D79002D13D00426D8
:100F200080230B4C0B4F66616268DB003A40134331
:100F300063601E20FFF7DAFF6368044A1F40002346
:100F40006760666153712800F8BDC0460400002048
:100F500000600040FFF0FFFFF8B50226F027A02355
:100F60000D4C0F25A665E26C1E20BA431343E364C3
:100F70000123A365E26C0933AA431343E364FFF73B
:100F8000B5FFE36CBB43E364E665E36CAB43E3644A
:100F90000123E365F8BDC0460060004009490A4BE3
:100FA00010B500224C68984205D9084B013298428E
:100FB00001D90632224007204B68834313434B601C
:100FC00010BDC04600000C400024F4000048E801B9
:100FD000F8B503000F250C221C0008001D4014402A
:100FE00013422BD10232134233D1012D26D10238C4
:100FF000092823D804F0D2FB2A0523262222222204
:1010000022280120032501222D4C11002D4EFFF72F
:10101000C1FBE76B2C48E663FFF7C0FF002F01D050
:101020000023E363294B5D62FFF712F9E56BE6638A
:10103000FFF7B4FF002D01D00023E363F8BD0220C9
:101040000500E0E70320DEE70520F9E7002004259E
:10105000D9E701380B28F1D804F096FB28131AF0D1
:10106000F021F0F0F0F0F00600230124174A916A15
:10107000022D1DD11648240401400B4323439362E3
:10108000DCE7012200201100FFF784FB0223EDE7DB
:10109000012211001000FFF77DFB0123E6E7042188
:1010A0000C4A13680B4313600323DFE70023DDE7DB
:1010B00009489B002405234301400B43DFE7C0465A
:1010C00000000C40711B000000366E0100800C40D7
:1010D000FCFFFEFF40800C40F3FFEFFF0A4810B515
:1010E000036ADB060FD40122084B816A114202D049
:1010F000013B002BF9D1036ADB0704D50022203025
:101100001100FFF79BFD10BD0002002031750000AB
:1011100070B501250F211A4B1A4C1D615A681A48E7
:101120008A43110003220A435A60E36B2A00AB434F
:10113000E363E36B0021E363A36B2B43A363FFF73C
:101140007DFD124B65631B6A002B01D0FFF7C6FFC4
:101150000C2108220E4B186888430243186801438B
:101160000C48986072B600240B4804601A6019603D
:101170001A6019601A6019601A6019601A6070BDEF
:1011800000600040FC6000402C6100400002002034
:1011900000600C40E8AD0000E4800C4010B5012177
:1011A0002E20FFF7CBF910BD10B500212E20FFF740
:1011B000C5F910BDF7B50025B44B2E001A6E00928C
:1011C0001A0058325488117912780192C020B04A1E
:1011D000C000976A07421DD0002D03D01800583078
:1011E00044800171B9050FD51900FD2058314870B0
:1011F000190009205831FBE0012500242E000322AC
:101200000192E3E70125E1E77905F1D51900FE2018
:101210005831ECE70198082800D980E104F0C8FAB9
:1012200009003C0087009D00CC00EA0028013E0137
:101230006C01002E03D01800002658300670002DD7
:1012400003D01800583044800171009948880988FB
:10125000C4061BD50620090A0140EA3001431C00E0
:1012600001205834207051625060190058310C78B8
:101270000120092C09D10020506301228A56012A3D
:1012800000D14870012058331856FEBDFE2421407D
:101290008007E4D50120E1E7802007420DD0002D32
:1012A00003D018005830448001718021F820116368
:1012B0001900404258310880BBE0402007420CD161
:1012C000002E03D01800012658300670002DCCD017
:1012D0001800583044800171C7E7106300984088B7
:1012E000C6060DD5002D03D018005830448001717A
:1012F0001900022058310870009909785162B4E74A
:10130000800700D4C7E0002D03D018005830448077
:101310000171190007205831087009790098C90037
:10132000411809890129A0D1073151609DE780202A
:101330000742B4D14020074205D1002EC6D0180084
:1013400002265830C1E710630520009A0126528812
:101350000190920700D439E751E7002E03D018001E
:10136000032658300670002D03D0180058304480F2
:101370000171009948880988C4061AD50624090A0B
:101380002140EA34214340070CD5012001431800D5
:1013900058300079009CC00020180089012801D134
:1013A0000730506018000424583004700120506049
:1013B000A4E7FE242140E6E78020074200D06EE744
:1013C0004020074206D1002E00D17FE718000426F6
:1013D00058307AE710630098408840075BD5002DAD
:1013E00003D018005830448001711900072058318B
:1013F00008703AE70098CF008446BC4460460089F4
:10140000A0421FD800980424458801312F00C9B29A
:101410002740254200D0EFE60120033C2C40054246
:1014200009D0180058304780017119005831082040
:101430000870022179E7012900D8E3E61800583046
:101440004480F1E7002E03D01800052658300670BE
:10145000002D02D01800583001710099651CCF1979
:10146000190078685831005D4D8050620620BFE752
:101470008020074200D012E7402007420AD1002E08
:1014800000D123E71800062658301EE7000300208D
:1014900000A00040106301260522B1E6002E03D013
:1014A0001800072658300670002D03D01800583059
:1014B00044800171B90600D4D7E61D00583529795A
:1014C0000098C900411808896C88D669A04203D9E0
:1014D0004968671C6F800E55190058314C88A0422E
:1014E000A5D904215160012800D8BEE60138491869
:1014F000844200D0B9E618E7002E03D01800082671
:1015000058300670002D03D0180058304480017107
:10151000802149000F4200D1A7E6116368E6002D43
:1015200003D0180058304480017119000148583127
:1015300008809AE609FBFFFF1B4B70B59A68D2073B
:1015400001D520225A604288910702D501890029DD
:1015500024D0520702D5028A002A1FD08021134AC4
:1015600049001400916510660025C0225834257189
:101570005A60DA680A420FD10D4A1A63FC22596B8D
:10158000D2000A435A63FFF715FE0A4C012802D124
:10159000013C002C05D170BDDA69EAE70420404225
:1015A000F3E7FFF707FEF1E700A00040000300208B
:1015B000FFFF0100E193040030B50E4B87B000241B
:1015C00001936B46050002949C8104949C8201A8BF
:1015D000FFF7B2FF431C07D1AC4208D203300234FC
:1015E000FFF72AFCA4B2F2E7C0B207B030BD7E20FC
:1015F000FBE7C046A0000100F0B51C00802389B0C5
:1016000007000D0001921B02994206D31E230370AE
:1016100061334370002009B0F0BD62189A4202D9CC
:101620001A4C641AA4B2002C28D0AB0901336219F9
:1016300026009B01934201D25B1B9EB202AB02AA21
:101640001D702B0A5370124B049203931300022255
:101650009A81019B03A8069302AB9E82FFF76CFF61
:10166000C0B200280BD10A30FFF7A6FF002806D130
:10167000019BAD199B190193A41BD3E720001E23E6
:1016800078703B7043425841C0B2C4E70080FFFF0E
:10169000A000040007B56A46064B1B7813710123AE
:1016A00001AAFFF7A9FF0023984201D06B461B79DE
:1016B00018000EBD615D000070B5060000245E25B7
:1016C0003378013B9C4209DA054B211D586EFFF728
:1016D000E1FF01344540EDB2E4B2F1E7280070BD0E
:1016E0000003002070B5050008001400FEF774FE2A
:1016F0000100FF2806D02888034B4118586EFFF7D9
:10170000C9FF0400200070BD00030020F8B50D00E3
:101710000400002228000A21FFF7E4FF002207004E
:101720000B212800FFF7DEFF002206000C21280015
:10173000FFF7D8FF27706670A0702000F8BD002367
:1017400010B504000800A370110063702370E370EB
:10175000FEF7AAFE011E05D0034804232200406EB6
:10176000FFF74AFF200010BD00030020F7B51F005F
:1017700008AB1B780400002B09D1CB8E0380042317
:1017800083701F4B43601F4B2000A360FEBD002AE7
:1017900031D008003530007890422CD30D329200C1
:1017A0005658012B06D1F28AA370174B2280636032
:1017B000164BE9E7042B1ED100251036310001A895
:1017C0002A00FFF7BCFF390001A8FEF7CBFD002877
:1017D0000CD029003000FEF767FE043080B20123F0
:1017E000A3700B4B208063600A4BCDE70135EDB24F
:1017F000062DE3D1F3E7002323606360C4E7C0460E
:101800007904000033050000910400009D040000ED
:10181000C7040000D304000073B506000024E5B23D
:1018200001A82A003100FFF78AFF01A8FEF78DFD0D
:10183000002803D00134062CF1D1FF25280076BD05
:10184000964A00B513009649926E68331B798A4216
:1018500000D083E00422002B0FD0012B00D16FE0D9
:10186000022B00D16EE0032B07D0033A042B04D0E7
:10187000591FFE32012900D8FD3A027082700422FD
:10188000002B0AD0012B07D0991E01295CD9191F02
:1018900001295BD9062B00D0FF22027182710A2236
:1018A000002B13D0F532012B10D0F43A022B0DD0BF
:1018B0000232032B0AD0063A042B07D00022052B54
:1018C00004D09A1F511E8A415242D2B242700B225A
:1018D000002B10D0F432012B0DD0F53A022B0AD098
:1018E0000232032B07D0043A042B04D0591FF732DD
:1018F000012900D8FE3AC2700C22002B0BD0012B1C
:1019000008D0022B24D0032B24D0191F012923D95E
:10191000062B00D0FF2242710D22002B0DD0F23297
:10192000012B0AD0F73A022B07D0D91E0632022922
:1019300003D9F132062B00D1F23AC271002000BD6A
:10194000FF229AE71A0098E70222A6E70122A4E7FD
:101950000922E0E70F22DEE70D22DCE751498A4247
:1019600000D099E00222002B0BD0012B08D0991E49
:10197000012900D882E0042B00D181E0052B00D0A2
:10198000FF2202700222002B09D0012B06D0991EE3
:10199000012977D9042B77D0052B00D0FF22827044
:1019A0000122002B0BD0934270D0022B70D0032B5E
:1019B00070D0042B03D09218052B00D0FD32027199
:1019C0000122002B0AD0FE32012B07D0FA3A022B5B
:1019D00004D0D91EFA32022900D8FD3A82710022C1
:1019E00093420DD0FF32012B0AD0991EF83A0129FB
:1019F00006D9053A042B03D0013A052B00D0FE325C
:101A000042700122002B0DD0FE32012B0AD0991E0C
:101A1000F93A012906D90022042B03D00232052B02
:101A200000D0FD32C2700722002B0FD0F832012BFC
:101A30000CD00022022B09D00F32032B06D0043A1F
:101A4000042B03D0083A052B00D0FC324271082247
:101A5000002B00D171E7F732012B00D16DE7FE3A80
:101A6000022B00D169E7D91E0D32012900D864E7A5
:101A7000053B5A1E93415B42DAB25EE7032280E7E0
:101A800005227EE703228AE7002288E7FF2296E705
:101A9000052294E7022292E7034850E70003002062
:101AA00000C0004000C40040022000F0144B70B59C
:101AB00040331B780500002B1FD0EFF3108072B667
:101AC000104E002231005C310C7C002C0DD114230F
:101AD000310053435C312A60CA180121F318117494
:101AE000DC65FFF793F9200070BD01321431062A3E
:101AF000EAD1FFF78BF90448F6E70448F4E7C0465B
:101B00008003002080020020048000F0028000F0AA
:101B1000F7B51D0008AB0C001E78019207291CD8F0
:101B20008F0010490722BA40B8400B68934318430E
:101B3000019A086021000C48FFF780F82A00210074
:101B40000A48FFF77BF80123A340094A21001362EA
:101B500008483200FFF772F8F7BD0F00083F06494A
:101B6000BF00DFE700610040086100400C610040F9
:101B7000FC6000401061004004610040F7B51600B1
:101B80004022144B04001A603E3A1A60124B0F00B8
:101B90001D001435002801D108331D006B68002B8F
:101BA00008D000220F21287813000140009200097C
:101BB000FFF7AEFF01231A00A2406A600322921BC6
:101BC000AF602C70210000201A400093FFF7A0FFA7
:101BD000F7BDC04600E100E00002002013B5094C4B
:101BE000A369002B08D000220F21207D13000140A3
:101BF00000920009FFF78CFF00232375A361E361C6
:101C000013BDC0460002002030B50C1E0BD1184B8E
:101C1000184A516B1940062828D803F0BFFD071455
:101C20001E20272722001024134BF1E71348FE251E
:101C30000368ED012B407F25006828400343A34043
:101C40000B43536330BD0D48FE25036800681B0C31
:101C5000ED0140022B40400EF0E70948E7E7084855
:101C6000F2E77F20074B1B680340E8E70023E6E725
:101C70008080FFFF00200040FFFF8080B481E00FE4
:101C8000B881E00FBC81E00F0A4B40331B78002B7A
:101C90000ED005280CD81421074A414313005C33A9
:101CA0005B181B7C002B03D001238340034AD362C3
:101CB0007047C046800300208002002000200C40B6
:101CC0000C4A03004032127810B5002A11D00528C2
:101CD0000FD8EFF3108072B61421074A594313004E
:101CE0005C335B181A7C002A01D000221A74FFF7BB
:101CF0008DF810BD8003002080020020F7B505009C
:101D0000EFF310830193FEF7AFFA00282DD02800DF
:101D1000FEF7C3FA002828D0012602274368154A97
:101D20001B0A9B181A024371130C120E041F8371B5
:101D3000C271A3681B0A18D12800FEF7CCFA237AD7
:101D400033420DD0BB4323722368290020001B6857
:101D500098472800FEF7A1FA002806D0041FE8E7FC
:101D6000211D281DFEF734FDF3E701A8FEF785FAD3
:101D7000F7BDC046FFFFFF0010B502482C30FFF74B
:101D8000BDFF10BD00020020F7B5040000910192D4
:101D9000EFF3108072B6002201270E4D1301E918EF
:101DA0004E6C002E04D0496C8C460021A44508D10D
:101DB0000021EB18D9640099996401995C64196554
:101DC0003900022A02D001320029E7D0FFF71EF8BD
:101DD000F7BDC046800300208023F0B51B0205003C
:101DE0000F0014007F2087B09D422DD252199A42D5
:101DF00002D9164C641BA4B2002C24D0AB090133C9
:101E0000621926009B01934201D25B1B9EB26B4676
:101E10006A461D702B0A53700D4B029201930222E9
:101E20006B4601A89A819E820497FFF785FBC0B29A
:101E3000002809D13230FFF7BFFB002804D1AD19CB
:101E4000BF19A41BD7E7200007B0F0BD0080FFFF3B
:101E5000A000080013B56B4604000800D91D0A70E5
:101E60000122FFF7B9FF14236070237013BD10B572
:101E70000400080011000422FFF7AEFF1423607075
:101E8000237010BDF0B50600002485B0019103ADAC
:101E9000310028002200FFF752FC28000199FEF7CC
:101EA00061FA00280FD00B4B210030005F6EFEF767
:101EB000FBFA002301002A003800AB706B702B7016
:101EC000EB70FFF7D4FF0134E4B2062CDFD1012020
:101ED00005B0F0BD00030020F0B5002689B0070072
:101EE0000D00140031001C2201A8009603F0C4FB71
:101EF00080231B029D4204D37F233E707B7009B078
:101F0000F0BD62199A4202D9114C641BA4B2261C7E
:101F1000202C00D92026B6B2AB09013372199B01DF
:101F2000934201D25B1B9EB2320069462800FFF744
:101F300053FF002803D0002378703B70DFE7A41B19
:101F4000A4B2AD19002CE2D13C707C70D7E7C0463A
:101F50000080FFFF70B505001820FEF73DFA0B4B1F
:101F600001005C6EFF2809D1042200212000FFF748
:101F7000B3FF0A2323700023637070BDE88E4118FD
:101F80002000FFF787FBC307F7D4EDE7000300202D
:101F900010B50400102103F035F8200010BD10B575
:101FA0000400182103F02EF8200010BD10B5040025
:101FB000142103F027F8200010BD10B504002C21D7
:101FC00003F020F8200010BD10B50400782103F0C4
:101FD00019F8200010BD10B504001C2103F012F800
:101FE000200010BD10B504002C2103F00BF82000D8
:101FF00010BD10B50400782103F004F8200010BDD6
:1020000010B504004C2102F0FDFF200010BD10B5FA
:102010000400242102F0F6FF200010BD10B50400DA
:10202000382102F0EFFF200010BD10B50400302170
:1020300002F0E8FF200010BD10B50400082102F0F6
:10204000E1FF200010BD70B501212348FEF70AFE14
:1020500001212248FEF706FE01230A221900022070
:10206000FEF7FAFA01230A2200210220FEF7F4FA11
:10207000022509221A4B013A9D65DD65002AFAD135
:10208000184C194B0121A363184B62632000236392
:10209000FEF7D4FD226816490A40226023680B40EF
:1020A0002360FEF773F8134B13499B6822680F22D5
:1020B0001340D840114BC01803F084FB236801384B
:1020C0002B4202D0002800D10130206101220021E2
:1020D0000448FEF7B3FD70BD4081040000B2040067
:1020E0000060004000A0004003040000FFFF01006A
:1020F000FFFCFFFF00800C40405A0B001FAD0500A5
:1021000010B51D4B5A79012A04D0197901220029F2
:1021100001D15A7110BD002801D11871F9E7174992
:10212000012813D1002218715A7104220A614A68E9
:10213000134810408022D20002434A6001220A2044
:102140005A71FEF779FEE5E71A71EEE70228ECD145
:102150000E20CC6C0442F7D10F24CA65C86CA04392
:102160001043C8640748046820001040A2431A7155
:1021700058710028CED1D8E704000020006000404C
:10218000FFF0FFFF6460004070B50500FDF7FEFF43
:102190000F220A4B29009B681340D8400400681E98
:1021A0002418200003F00EFB0023AC425B41C01A50
:1021B0007F2800D97F20C0B270BDC04600800C408F
:1021C000F7B50190FDF7E2FF2C4B06002C489F6805
:1021D000FFF7DAFF051E2B4849D1FFF7D5FF0500B1
:1021E0000A23294C636005331F40FE4000D10136AD
:1021F000264B2749F01803F0E5FA01380304FE20C6
:10220000C0030340FE202D02C0010540E020002154
:102210001D430223C0040543256008006360FFF7E7
:10222000F3FC1C4BE36001236360A26815001D40B2
:102230001A42FAD10A23666A6360F8235B03E560F9
:1022400025612360144B65612362144B290028002B
:10225000E363FFF7D9FC28000121FFF7D5FC104B01
:10226000B6B27343019A1B1401201380FEBDFFF721
:102270008BFFFA20C001FFF787FFB1E700800C4019
:10228000801A0600405DC600002000403F420F005B
:1022900040420F00300950000303000047070000D0
:1022A000A60E000070B5040014300D00FFF788FF83
:1022B000E368002B08D0190A63721B0CA172280076
:1022C0002100E372FEF7FCFA70BDF0B500260400B1
:1022D0005D4889B060300680FFF772FF6A465B4B4D
:1022E00001AD1B7801961370E37CAE80012B00D00A
:1022F00071E00527F5331370554B03AE03936B461E
:1023000073600123338100233000F3603382FFF7D1
:1023100013F9C0B20B23002800D091E03800FEF77B
:102320008BFD4C4B30000393062375603381338261
:10233000F560FFF701F9C0B20C23002800D07FE060
:102340002A786878D243D3B20822A9785EB2B4461C
:102350005E00312367467340DBB2002F44DA013A56
:10236000D2B2002AF2D108223126434058005FB28F
:1023700033004340DBB2002F38DA013AD2B2002AF0
:10238000F4D1994221D1EB780822DB433120DBB232
:1023900059005EB203004B40DBB2002E28DA013A4E
:1023A000D2B2002AF4D12A793120534008225900B0
:1023B0005EB203004B40DBB2002E1BDA013AD2B210
:1023C000002AF4D16A799A4216D00C232373713310
:1023D000637309B0F0BD0927022B00D08CE7E0221F
:1023E00069461F000A7087E7F3B2B8E7C3B2C4E7D3
:1023F000CBB2D4E7CBB2E1E76B46D8791E7AAF23F4
:10240000360206432888A77C40BA80B27843124936
:10241000584303F061FA2D235B425F43C019E0810A
:1024200070BA7D2680B270430B4903F055FA063826
:10243000642800D964200C23207423730023C7E789
:1024400023736073C5E7C04600060020605D00008E
:102450008800010088000200FFFF0000F0B585B091
:1024600000930AAB0C00110004CB03901F78384B8B
:1024700001921A0040321278002A64D0052C62D8EA
:10248000009A002A5FD014253248654302005C326E
:102490005219127C002A56D00C2060432E4D1A1877
:1024A0005567002595672D4D2601AA68743392194A
:1024B0001B18D3600122029616008823A640DB0079
:1024C000E3189B00EE6359510C9B002B3DD0244B2D
:1024D000EE5021002348FEF7B1FB039B3800032197
:1024E000002B01D139000320AA682301D2183B0731
:1024F0003F061F438007890607430F4314216143AA
:10250000144C0C9B64189760E3650D9B01212366B6
:1025100000236366124BA166EE50AB68029AD31893
:10252000DA68002A00D011729A68019A0E491A607E
:102530009A68009A5A60EE616E639A6811400122AF
:102540000A439A60AE6205B0F0BD0C9AC1E7C0467E
:102550008003002080020020B10B000000200C400E
:10256000081000000C300C4008C0FFFFF8B5040054
:102570000F4F0E002C37010038001500FEF741F90F
:102580002000FEF701F82000F10008220C30691845
:1025900003F0EEF8237B002B08D000233900200045
:1025A000A382FEF73DFA2000FDF7E0FFF8BDC0462C
:1025B0000002002070B50C000500FDF7EFFF002CB5
:1025C0000BDBE4B221002A6C281DFFF7CFFF2800A7
:1025D00021006A6C2030FFF7C9FF70BDF7B502001B
:1025E0002D32037B12785B0752B205005B0F002A85
:1025F00067DB816A1C00885C052B17D01F283AD83E
:10260000042842D905381A283FD803F0C7F80E3EEF
:102610003E3E3E584A4C3E3E3E3E3E3E3E4E505270
:102620003E3E3E3E3E3E3E54560006246B6A280027
:102630005B680193FDF7E5FE019B060043331A78C2
:1026400090420FD0019A1870171D3800FDF7A6FFB1
:10265000002E07D1019B41331B78012B02D138009A
:10266000FDF7BDFF631C05D06B6A2100586804307C
:10267000FFF7A0FFF7BD11245128D7D008D8023C9E
:102680002828D3D001345028D0D001246442CDE78B
:1026900012245228CAD0FF38040063425C41013C36
:1026A000C4E70824C2E70924C0E70A24BEE70B24D4
:1026B000BCE70C24BAE70D24B8E70E24B6E70724DC
:1026C000B4E70524A342B1D00024AFE770B50C4DA8
:1026D00004002B0041331A7882420DD0094E187045
:1026E00043353000FDF75AFF2978002904D1300026
:1026F000012C02D1FDF773FF70BDFFF75BFFFBE715
:102700000006002004060020FF2370B5C26B040001
:102710000D009A430BD1064A04306D32FFF726FFB5
:102720002000044A290020303532FFF71FFF70BD1A
:10273000645D0000E45D000010B504000420FEF7B5
:1027400086FA200003F0B4F91F231B1A0F20034957
:102750008A6E824313438B6610BDC04600800C40D6
:10276000014A024B9A6070470000000000ED00E053
:1027700010B50020FDF74DFF10BD10B50120FDF78D
:1027800048FF10BD70B5194B1A79002A04D0802279
:10279000D98852010A43DA800120FEF73BFB00246E
:1027A000EFF3108072B6124A2301D3185A6C002A34
:1027B0000DD100263500FEF729FB002D03D0002E99
:1027C00011D03000A8470134032CE9D170BDDA6C78
:1027D0000132DA64D96C9A6C9142EAD30022DA644D
:1027E0005D6C1E6DE7E7A847EDE7C04600020020DC
:1027F00080030020064B1A79002A03D00122D988D1
:102800000A43DA800722034B9A61BFF34F8F704768
:1028100000020020000008408023F0B51B4A1C4E37
:102820005B01F358B25885B01A401500B36B01270D
:1028300003931D4002230292019300241AE03D42BB
:1028400016D03A00A2401349B368725022019B1877
:10285000DA68002A0CD03B00117A4B4013721368DF
:10286000002B05D0481E814152682000C9B298470C
:102870006D080134002DE2D1039B029D9D43019B15
:10288000012B01D00197D8E705B0F0BD0C10000076
:1028900000200C400810000013230022F0B5564C15
:1028A00087B06B441A702300059068331B7D012BA1
:1028B00000D19EE0EFF3108072B62300B0331A7897
:1028C000D6B2002A0CD0FEF7A1FA4C4A0A214C4B92
:1028D0003C3319715A7113236B44187807B0F0BD5B
:1028E00001271F70FEF792FA2300B8331E702300F1
:1028F0009C331F60C023A56E1B01EB602300414A7F
:1029000094331A60636F082B5DD9092B57D02B00C5
:102910003C3524333E002100BC310A6820000132DE
:102920000A60220021000093132368300390364888
:1029300001960290903288316B4401201268096838
:10294000FFF78CFD2700002005AB00930390029059
:10295000019608378C342B002268F96FFFF77EFD53
:10296000EFF310820123244C1A4220D1274D2A680C
:1029700093431CD1C0239B00E958254B5B68DB05C2
:10298000DF0D002B2FD0103F032238001040904065
:10299000FBB27EB23F061AD4B308C0339B005B592A
:1029A000C34009069B091A40890F91421BD323009B
:1029B000B8331B78002B13D0AC34226886E72B0089
:1029C00030351833A6E72B0034351C33A3E70F2529
:1029D0002B40083B0F4D9B089B005B195B68DFE7B2
:1029E000FFF71AFFE3E72200B8321378002BFCD080
:1029F000E2E7094A6AE7C04600030020032000F02E
:102A000000040020B10E0000BB0E000000E100E059
:102A100000ED00E018ED00E0082000F070B50400C3
:102A20000D00FEF7C1FB20002843FFF735FF002013
:102A3000FFF732FF0400FEF7B1FB200070BDF8B5D0
:102A400005000E001400FEF7AFFB2800FFF724FF7F
:102A50003000FFF721FFFEF7A1FB80212800FFF7E0
:102A6000DDFF012786420CD00027BC4209D0013C83
:102A700031002800E2B2FFF7E2FF07000120FEF775
:102A8000DBF93800F8BD10B50400FEF78DFB20001F
:102A9000FFF702FF0400FEF781FB200010BDF7B531
:102AA000027D0123140006001C401A4200D0A9E058
:102AB00070253620FFF7E7FF0134284204D00A20B2
:102AC000FEF714FAFF2CF4D13A20FFF7DCFF39208F
:102AD000FFF7D9FFFFF782F84C4C2300250088331D
:102AE00018680835FFF7D0F8E86FFFF7CDF86846AB
:102AF000FEF7A6FE051E32D16A4623009279A43362
:102B00001A606A462300D279A8331A606B46022203
:102B1000597818782B00FDF79FFD6B460222D97873
:102B200098782B00FDF798FD23006A4668339B7D5B
:102B300051791079012B66D82B000222FDF78CFD0C
:102B400023006833DA7D002A09D123002100A43351
:102B50001868A83113000968C0B2FDF77DFDA06EAA
:102B6000FEF780F92300B43300211868FEF77AF8E5
:102B700023000833D86FFFF7A3F8230088331868C1
:102B8000FFF79EF8EFF3108772B60022204B5C33FC
:102B90001D7C002D15D101321433062AF8D10122F3
:102BA0001C4BDA67BFF34F8FBFF36F8F1A4B1B4A73
:102BB00029009D501A485D60FEF754F8194B4033C8
:102BC0001D703800BC34FEF721F92368002B01DDAD
:102BD000002323600222144B00210233DA872E20C7
:102BE000FEF77EF800213720FEF77AF800212F202B
:102BF000FEF776F801212D20FDF7A0FC0123327DA0
:102C000013433375F7BD012397E7C0460003002047
:102C10008002002004E100E000200C400C100000C5
:102C2000001302008003002000040020F7B50121FA
:102C30002D20FEF755F800212D20FDF77FFC022006
:102C4000FEF7FAF801212E20FEF74AF8B04C542284
:102C50002000270000216C3002F00EFDAD4BB43790
:102C60003B602300AC4A8C331A602300013A903356
:102C70001A600323A94A01261371A94BA94D2367A2
:102C8000082356756367D6753100A748A566FDF71A
:102C9000E9FF3100A548FDF7E5FF31003868FDF791
:102CA000E1FF2800FEF7DEF82A68A14B13432B60F2
:102CB0002B682B609F4B6B60FDF768FA0F229E4BD1
:102CC0009E499B681340D840013802F07BFD1023D9
:102CD00000026861EB600B3BEB60994B68466B65EB
:102CE000FEF7AEFD051E57D16A4623009279A43344
:102CF0001A606A462300D279A8331A606B461878A6
:102D00005978864B1F7D002F00D083E03B000422C2
:102D1000FDF7A2FC6B463200D97898783B00FDF7AE
:102D20009BFC6A467D4B51799B7D1079B34200D95B
:102D30006EE03B000422FDF78FFC23006833DB7D4F
:102D4000002B0AD123002100A43318680422012398
:102D5000A831C0B20968FDF77FFCEFF3108072B6AE
:102D6000784B44331A78002A01D101321A70FEF7E9
:102D70004DF8EFF3108072B6734B40331D78002D81
:102D800000D16EE0FEF742F820008430FEF78EFEA0
:102D9000002800D1B4E06D4D01243220FEF7A6F8E2
:102DA000684B3C335D711C71FEF7FEF90A20FEF79B
:102DB0009DF8FEF7F3F93220FEF798F8FEF7F4F9E4
:102DC0000A20FEF793F83020FFF766FD0A20FEF791
:102DD0008DF8FEF7E3F95E4E3500B1367D35697842
:102DE00028780322FFF72BFE431E9841023540420C
:102DF0000440B542F3D13320FFF745FE1720FEF71C
:102E00001BF80322C0213E20FFF719FE2000FEBD63
:102E100033008FE72B003200FDF71EFC6B460422C7
:102E2000D97898782B00FDF717FC6A463B4B51790F
:102E30009B7D1079012B12D82B000222FDF70CFC90
:102E400023006833DB7D002B00D086E723002100C0
:102E5000A433186802220123A831C0B27AE73300F4
:102E6000EBE701261E70FDF7D1FF3A4BC0211A0097
:102E70005C3215741A006132D5771A0094321570DD
:102E80001A00A83215701A00BC321570FF22324F9A
:102E90008900D0331D707B58304893431A00C023FB
:102EA00013437B503100FDF7DDFE2D4BDE67BFF392
:102EB0004F8FBFF36F8F3F222A4B2B495D602B480A
:102EC000DA615A62DA625A63DA63294ADE649D5033
:102ED0005850F8315D5027495D5027495D502749CA
:102EE0005D5027495D5027495D50C02149007E5003
:102EF000802109063E609950234A9A605E6043E74C
:102F000020008830FEF7D2FD051E00D144E742E7DD
:102F1000000300200042040001000D0068030020AF
:102F200040420F0000C400404081040000820400C1
:102F3000010400000510000000800C4080841E0089
:102F40000B0300000004002080030020092000F093
:102F5000E45D00008002002000E100E000130200B8
:102F600004E100E000200C40081000003F00008059
:102F70000C10000004110000081100000C110000EA
:102F800010110000141100000005002010B53620BB
:102F9000FFF779FD3D20FFF776FD3A20FFF773FD3F
:102FA00010BD10B50400FFF741FEFEF7FDF800204C
:102FB000FFF772FCFEF7F2F8002C01D0FFF7E6FFF6
:102FC0003420FFF760FD10BD70B504000125237D9E
:102FD00008002B4204D0FFF7E4FF237DAB432375A9
:102FE00070BDF7B50091037D040004221800104065
:102FF00013426CD0237DC02193433B202375FFF700
:103000000DFD270040B2163700282EDD80213F201D
:10301000FFF704FD05001C2827D82600FEF7C4F89A
:10302000FF20FFF739FC63190193019B9E4205D0F5
:103030000020FFF731FC01367075F6E7FEF7AEF8B9
:1030400080213F20FFF7EAFC802243B25200134068
:10305000C31AD80FC018401040424A306070802117
:103060003F20FFF7DBFC030600D400253A20FFF7E2
:103070000AFDBE20FDF73AFFFFF788FF3420FFF777
:1030800002FD002D1AD07622A37D65755A40A275E7
:1030900001226E1EB95CB818B24206DA243B4B40DE
:1030A00001320370D2B20B00F4E7E37D2A005940ED
:1030B000009B01703900581C02F05AFB0021009B54
:1030C00020001D706175FFF77FFF009B1878FEBD23
:1030D000F0B50400100012780F00CA7142788FB06A
:1030E0000A7282784A72B9494531FDF71CF9002805
:1030F00006D02022BB7893431A0004231343BB70ED
:10310000236B19785A789B787A71BB718023BA78CF
:103110005B4213433971BB7006221421A068FEF78D
:10312000E1FA031C002800D10123DBB20520019342
:10313000FDF752F901230293FF280ED0A3681988E6
:10314000A34B0918586EFEF7A5FA00230006800F5E
:103150000293984206D0C3B2029363680221181DFD
:10316000FFF7D2FA6668BA783300743304931023F9
:1031700035001A4033008A3589330592791C3A7834
:103180002800009302F0F4FA76223978009B197037
:103190002B780139534032002B708B321278009219
:1031A0000122A8188446A85C8A4207DA243B4340DF
:1031B0006046DBB201320370D2B2F2E7009B350009
:1031C0004340180063461870330089331B78783504
:1031D000039332007832137BD9B20091002B03D0D5
:1031E0000120FDF729FEF4E733000A21813319702D
:1031F00000997848597099700123290013732C3075
:10320000FDF75EFB01210498FFF7DEFEFEF7E6FC0A
:10321000320002217432137D36200B431375FFF701
:1032200032FC3B20FFF72FFCC8253520013DFFF77E
:103230002AFCEDB26420FDF759FE002D28D136207E
:10324000FFF721FC3B20FFF71EFC3D20FFF71BFC96
:103250003420FFF718FCC0213520FFF7DFFB0D28D5
:10326000F6D13300022174331A7D01208A431A7586
:1032700059490322FEF782FC019B013BDBB201931B
:10328000002D73D0BB789B0641D40123009371E0DD
:10329000C0213520FFF7C2FB1328C6D10938FDF73E
:1032A000CBFD059B002B03D0AF204000FDF7C4FDF4
:1032B0003500FDF779FF3F20FFF7EEFA0398FFF79F
:1032C000EBFAFDF76BFFFDF76FFF7F20FFF7E4FAE6
:1032D000039B8A35EB180393039BAB4204D02878F9
:1032E000FFF7DAFA0135F7E7FDF758FFC825C021E7
:1032F0003520FFF793FB0D2801D10125B1E7013DF2
:103300006420EDB2FDF7F2FD002DF0D1F5E7FB1DD5
:1033100018000393FDF719F80028B6D000233C26C7
:1033200006AA137053709370D37093715371137115
:1033300053721372D3719372D372606806A974309A
:10334000FFF74FFE00280AD006AB7A785B789A42E6
:1033500005D1039807A9FCF7E6FF051E30D1013E11
:103360000A20F6B2FDF768FD002EE6D1019B002B86
:1033700000D0F7E6029B002B07D0009B6068594203
:10338000594104300331FFF7BFF900980FB0F0BD89
:1033900006AB9B7A7F2B02D900231D0001930222EA
:1033A000BB78134204D106AB9B78013A134204D098
:1033B000606832216430FDF7CDFA002DD6D064E785
:1033C00006ABDB78022BE3D00025E8E70004002001
:1033D0000003002000020020DF040000F0B5070019
:1033E0008389040085B00937002B00D081E0026991
:1033F000137B0133DBB201931373494B48331D78C0
:10340000012D00D089E0474B0A216033188802F073
:10341000D9F980B2632203B20292012D01D0FA7F62
:10342000029226695B045B0E75680093C3B2039336
:103430004C35A88A6421323002F04EFA2B7CC0B29F
:10344000834203D98023009A1A4300920C23737499
:1034500064333375503BF374009B3500F376019B66
:103460002F4AB374039B11353377029B4532737730
:10347000042329002069F374FFF72AFE707DF37D91
:1034800000041843B37DFA26FA211B0218436B7817
:1034900000020343244889005843244BC018000C01
:1034A000C0B2E130FF307043214B963EC018464316
:1034B000300002F087F91F4D6072030A2C35000CB2
:1034C00021007B70B8702800FDF7FAF9FA211A4B39
:1034D0008900F01802F076F9230021002133020A56
:1034E0001870000C98705A7028001831FDF7E8F930
:1034F00011E06420FA215843890002F063F96072F8
:10350000030A000CB8700B487B7021002C30FDF7CB
:10351000D7F90023A38105B0F0BDC08C7AE7C0467F
:1035200000040020000600206D4EC6413930000026
:10353000C0D4010000020020206CFBFF1A23F7B565
:1035400043740023056BC3760375C37482740377D9
:103550002B7C6A7CC37603000227019129000400BA
:1035600028331A7006003A000E311C3002F000F9C0
:103570002000E91C0A221E3002F0FAF82200230083
:10358000290020003532127829331A7011363A009A
:1035900012312A3002F0ECF831002000019AFFF7D6
:1035A00097FDF7BDF7B50722037B0D00934311404C
:1035B0000B4303730400FDF7B1F8022D30D1210055
:1035C0002200FF202D310B782E3201335BB20B70BD
:1035D0001070002B0EDBA56AEA5CEB56002A04D1C2
:1035E00008702000FEF7FAFFF7BD012A12D1002370
:1035F0000B70F6E702007F231A4023002C33187863
:103600000023834209DAA56AED5C9542F0D00133CC
:103610005BB2F6E7002BE4DAEDE701235B42E7E774
:10362000052DDED0062DDFD12600FF232700002246
:103630002E3633702D37BA561D00002A01DBA16AE1
:103640008D5C20003B70FEF7C9FF162D0FD8042DAE
:1036500017D9681F112814D802F0A0F842131313C9
:1036600013486113131313131313137B9BA4282DF7
:1036700000D1A6E00FD81E2D00D197E01F2D00D15C
:103680009BE0002171564B1CAED0636A5868043031
:10369000FEF790FFA8E72B00503B022BF1D8012248
:1036A000502D03D0513D6B1E9D41AA1C6946636A93
:1036B000DB8D043B0B71674B07219A71664B5F6E84
:1036C0003800FEF7C7FB6B4601A81D79FDF7F4FF34
:1036D000013DEDB20200291D3800FEF7BBFBB7E04B
:1036E000002320003B70FEF779FFCAE7656A01A856
:1036F000A968FEF70BF82A7B28000132D2B22A73A0
:1037000001A9FFF71BFF6B680121181DFEF7FCFFE5
:10371000FA216868C9006430FDF71CF9B1E74D4B28
:1037200050229B79012B04D0033B5A425341513321
:103730001A0023002C33197800238B4206DAA06A82
:10374000C05C9042CDD001335BB2F6E701235B420F
:10375000C7E71820FCF740FEFF280BD0636AD98E1C
:103760003D4B0918586EFDF795FFC30702D502239C
:10377000337086E7606AFEF7EDFBC820FDF75CFB5F
:10378000BFF34F8F354B364ADA60BFF34F8FC046D9
:10379000FDE7BFF34F8F314B314ADA60BFF34F8FF4
:1037A000C046FDE7FF235B42E3856AE700222D4B1D
:1037B00048331A700223FF33F6E72A4B01224833BD
:1037C000F7E7636A002158680430FEF7F3FE636A86
:1037D00058680430FCF70FFFFA204000FDF72CFB7F
:1037E000636A58680430FCF7FAFE9620FDF724FB64
:1037F000636A58680430FCF7FEFEFA20FDF71CFBF4
:1038000096208000FDF718FB636A58680430FCF7C7
:10381000E6FE9620FDF710FB636A58680430FCF75B
:10382000EAFEFA20FDF708FB636A58680430FCF7EB
:10383000D6FE9620FDF700FB636A58680430FCF75B
:10384000DAFEFA20FDF7F8FA96208000FDF7F4FA88
:1038500001238DE7040000200003002000ED00E0BC
:103860000400FA0500040020F0B50D00036B97B0CA
:103870009A78070058781B780CA90B70EB1D4870DC
:103880008A7018000793FCF74EFD041E3ED07C683A
:10389000BF4B26002C337836310018000293FCF71A
:1038A000B0FF23000A22002481331A705C709C70E0
:1038B0000123310033733E000298FDF701F8AB7825
:1038C0000D365B065BD42B797B736B797370AB79A8
:1038D000B3706B783B74EA78AC7A0292012A00D01C
:1038E000CDE2EE7A0A2E55D13B6B3200D91C0EA8E0
:1038F00001F03EFF280032000EA90C3001F02AFF33
:10390000041E00D1AFE00024022678E029002A78C6
:103910000EAB1A706A780C315A70AA7811A89A7096
:10392000EE7802922A79DE701A716A795A71AA7950
:103930009A71EA79DA712A7A1A726A7A5A72AA7ACA
:103940009A72EA7ADA720392112201F011FF2720AB
:10395000904906AB4531C018FCF7E5FC002804D0BF
:10396000012E02D1039B0A2B91D0029B5B0703D54A
:103970003300403B012B8AD9200017B0F0BD300046
:10398000291DFCF7D0FC00289DD03A7C6B789A4228
:1039900099D1F1E7012E00D0B7E0002CB3D03B0065
:1039A00035331B78A342AED30D342800A400E4596C
:1039B000FCF7E3FC2B000C3303932300103302933A
:1039C000012862D103991800FEF75CFA0298FDF70E
:1039D00023FF0100FF2897D00298FCF765FD6E4B8E
:1039E0000100039A586EFEF742FA3B00012234337D
:1039F0001A70694B09325B6E1A7000225A70AB78EC
:103A00009B0629D507980CA9FCF78DFC002823D02C
:103A1000012E00D061E22B1D0293002C00D150E258
:103A20007B68200074335B78AE7202930E232B7098
:103A30000C3BEB700023AB70627D2B73EA72FCF7DA
:103A40005BFD029B6873AB73290038002A1DFFF7EA
:103A50003FFB237DB3432375786832216430FCF744
:103A600079FF012488E77B680299181DFEF74CFE58
:103A7000FA217868C9006430FCF76CFF38002A78B6
:103A8000291DFFF75BFD2600B9E720202A7B06A948
:103A900009180A706A7B013006A909180A70AA7B06
:103AA000013006A909180A7023212B7C06AA521896
:103AB000137003990298FEF7E5F90EA90298FEF734
:103AC000E1F90298FDF7A8FE0100FF2800D11BE7ED
:103AD000314B02985B6E0493FCF7E6FC039A0100FD
:103AE0000498FEF7C4F90298FDF796FE0100FF283E
:103AF00006D00298FCF7D8FC0EAA0100049872E7E1
:103B000003990298FEF7BEF9FEE6022E39D1002C89
:103B100000D1F8E63B0035331B78A34200D2F2E631
:103B20000D34A400E45929002300103318000C318F
:103B30000493FEF7A7F903902800FCF71EFC022867
:103B40000FD12A7B0EA90A706A7B2B7C4A70AA7B54
:103B50000498CB708A70FEF795F9039B0340DBB2A3
:103B60000393039B002B00D149E73B000122343330
:103B70001A70094B09325B6E029E1A7000225A704D
:103B80003DE7032E67D1002C08D100247BE7C04617
:103B90000002002000040020000300203A0035321B
:103BA0001278A242F1D329790DAA117069790D34E6
:103BB0005170A979A4009170E2593C0005921A2233
:103BC00011347A7463703B000A3A1C33E27010328D
:103BD000A2700493029A029300231E00A272039320
:103BE0000599039B1031062B23D00EA81A00FDF770
:103BF000A6FD0EA8FCF7A9FB002815D00422029808
:103C00000EA901F0B5FD029B01360433F6B2029312
:103C1000042E09D1210038000DAAFFF759FA049BA0
:103C2000061E029305D00026039B0133DBB20393EB
:103C3000D6E704220021029801F01EFD2022FB7C21
:103C4000B60093430E36210038007E74FB740DAA33
:103C5000FFF73EFA99E7042E64D12B7C0EAE009359
:103C60002B0030000C3322003900FDF77FFD338834
:103C700002260593002B00D180E02A790DAB1A7043
:103C80006A793C005A70AA7911349A701A226B78BA
:103C90007A7463703B00A67200260A3A1C33E27005
:103CA0001032A2700493029303960EAB9B78B3423A
:103CB00026DD0F9BF0B29847029B187002330693E3
:103CC000059BF1188A4B586EFDF7E4FC029B587077
:103CD000039B0133DBB20393082B0AD12100380088
:103CE0000DAAFFF7F5F9002807D0049B06930023DF
:103CF0000393069B01360293D7E7049A039002923E
:103D000000262022029B1E705E70039B06335B0020
:103D10007B74FB7C9343FB740DAA21003800FFF7F2
:103D2000D7F92BE00E2E2BD10D34A400E25910212F
:103D300003927A680398743252783C000492039A92
:103D40001134527D7E74002639751231F9741C3994
:103D5000F976BB743A777E77FCF7CEFB049BB87795
:103D6000FB7702232A1DFB7421003800FFF7B0F90E
:103D7000039B029A1B7D9343039A137500243EE62E
:103D8000052E12D13B003C331C702B7C08AE0093F7
:103D90002B002200390030000C33FDF7E7FC3B001C
:103DA000403307CE07C3029EE8E7062E26D13B002C
:103DB000029A34331A70BB1CDA8FFB8E9A4208D1F8
:103DC0007B680021181DFEF79FFC3B6838009B684C
:103DD00098473B00FF223C331A70454B00245A6E33
:103DE0000A23547013702B70083B29003800EB70C5
:103DF000AB70AC722A1DFFF76BF944E6082E27D191
:103E00003B003C331B78A34258D1BE1CF38F002BE0
:103E100054D02B781C1C0A2B00D80B240B3CE3B28B
:103E20002C000293631B029ADBB29A4246D9637B51
:103E3000207B0393BB6C9847FF2807D0F18F2C4B56
:103E40000918039A586E89B2FEF704F80234E9E7BC
:103E5000092E00D057E51422002638003C00BB7420
:103E60003B6B7A74043A3A75FE74063AFE763E77F6
:103E7000D91C1C3001F07CFC11342A1D4DE7029B3B
:103E8000112B17D1042C02D0CA2C00D07DE60A23B6
:103E900000262B70083B29003800EB70AE70AE7224
:103EA0002A1DFFF715F9CA2C00D16EE63800FEF77F
:103EB00051F863E7029B122B00D024E50024012671
:103EC0009DE50A232B70083BEB70AC70AC722900A7
:103ED00038002A1DFFF7FCF8BEE5022E00D0BBE536
:103EE0000A232B700023AB708033EE70AB72EEE7C9
:103EF000000300200122CD4BF0B51A64CC4B93B0E7
:103F0000DB6C1B0E812B07D8CA4BCB4ACB491A60FE
:103F1000CB4A13680B40136000221100C948CA4BFA
:103F2000446834331D685E68254202D0264200D1C1
:103F30002A43013108330B29F4D1C44BC449DA6454
:103F4000012383608A6814001C401A4201D0C14BCF
:103F50008B600120C04A13688343034313601368D6
:103F600083431360002C01D000238B600121BB48E8
:103F7000FCF778FEFCF76CF9FA21890001F022FCCD
:103F8000802301385B04984200D3D8E0B44AB54995
:103F90005060C0200B6A00061B021B0A03430B6221
:103FA0000023072193601160AF4A126C520700D4BE
:103FB000C6E0AE480993FCF7C5FE0122AA4C1100E9
:103FC000E36A0A9010000B93FCF7E4FB2200A36A5B
:103FD00001248020A64915000B4023439362936E71
:103FE00040000C93FEF7A8FB0022AB6D0892234221
:103FF00004D121009F48FCF735FE0894EFF31083AD
:104000000D9372B69C4E012433681D002540234257
:1040100000D19BE03568B36880210193F368974A2B
:104020000293F3694901039300233360F36107337B
:10403000B3617A33FF33D150012333608023904A38
:104040005B01136013685B0013600AD071687368CA
:104050009942FCD071681368013BFDD8736899429E
:10406000F0D00921864B1A6852081A601A68013983
:10407000002901D052086ED10D98FCF7C7FE002C24
:1040800000D17BE001240F2320000C9A1A409040BD
:10409000FEF752FB019B3462B360029BF360039B0B
:1040A0003560F36100233362089B002B03D00021AD
:1040B0007048FCF7D7FD0A9B032B03D019006B480F
:1040C000FCF786FF0B9B5B0602D48023664A1362D3
:1040D000099B002B03D000216A48FCF7C3FD09228D
:1040E0005A4BDB6C134204D1674A134201D0FDF7EF
:1040F0000FF8002401216548FCF7B4FD0EAB9C814C
:1041000011A8FEF75DF821006048FCF7ABFD0EAA90
:104110005F4B92899A4243D801215048FCF7A2FD97
:104120000422012310000A21FCF796FA594A0F9441
:104130000F9B934226D80F9B01330F93F8E7FEE7BE
:1041400001215048FCF78EFD012332E72C00039536
:104150000295019570E71F6817431F6077687068C4
:104160008742FCD0776818680138FDD870688742AC
:1041700000D17CE71F6897431F6078E72000FCF7B9
:1041800068FE91E70422002310000A21FCF764FA7C
:1041900000230A211A000420FCF75EFAFCF7B8FF9E
:1041A00000251E20FCF794FA0020FDF7A9FFFDF77B
:1041B0004AFF394B6A331B8804339BB20193364B59
:1041C000354A69331B7834320293AB4266D92B00EF
:1041D00031490E339B00CB185C6B019B0027E382B7
:1041E0000A236385230022616422210001352133E3
:1041F000EDB26575E78427851A705F709F70264B56
:1042000018312C3318000293FCF75AFB70225242EB
:104210006272713221000298A272E772FCF750FBC1
:10422000019B1F339BB20193C9E7C04600000C40BD
:10423000B081E00F18600C4005000004FFFFFFFE96
:10424000E4800C4000A00C40645E000000040020EC
:1042500000600C40E8AD000024600C4000820400C7
:1042600010E000E000ED00E000800C4002001E00C5
:10427000FCFFFEFF800612000000084000E100E0A5
:1042800004000020D0233E000606000000A2040027
:10429000F50900003E0D0300000200200021BB4B89
:1042A00008005F6EFCF783F800250400B84B20007F
:1042B000E95CFCF77CF801350400042DF6D1033DE0
:1042C000029B9D421DD80020FCF7E2F8010020006F
:1042D000FCF76DF804000020FCF7F1F80100200065
:1042E000FCF765F804000020FCF7EDF80100200061
:1042F000FCF75DF80621FCF75AF801350400EDB231
:10430000DEE704230021380010AAFDF775F9A14863
:10431000109B044311949C422ED0C820FCF78CFDC6
:10432000042211A90020FDF757FD14233B709A4B7E
:1043300078706A33042238001988FDF7CDFD002417
:10434000954B69331B78A34212D92300924A0E334E
:104350009B00D3185D6B1F223800E98AFDF7BCFD76
:10436000013400223800E98AFDF774FDE4B2E7E782
:104370000A233B7000237B704A20884C864B012126
:104380009C635B6E9B78A0770193FCF7A9FC844843
:10439000FCF7FAF84B203A3401212070FCF7A0FC1E
:1043A0008048FCF7F1F8FDF719FC7F4B7A4A0021B1
:1043B00001201360FCF794FCFEF738FC041E25D0A6
:1043C0000120FEF7EEFD794B50331D782B00603B4A
:1043D0000A2B11D8754B032251331F7821210D2050
:1043E000FEF72DFB032229000E20FEF728FB0322F7
:1043F00039000F20FEF723FB6D4B9B79022B00D079
:10440000BBE0032250213E20FEF719FB694903223D
:104410000120FDF7B3FB0621002C00D10231664CD0
:104420002000FEF771F95C4D644F2C3539002800EF
:10443000FCF7E7F9FA2301989B0001301900584373
:1044400001F0C0F9554B020A81331870000C5A7004
:10445000987001238034390028002370FCF730FA6B
:104460004D4F6237397811AF0B1F3B70474B053901
:104470005D6EC9B228000431FDF70CF90400380064
:10448000FDF71AF9A04215D104212800FDF702F921
:10449000464B0521503318702800FDF7FBF8434BBD
:1044A0000721513318702800FDF7F4F8404B00281D
:1044B00069D098710024424B02212C335C73200098
:1044C000FCF70EFC022220003E49FDF757FB0127B6
:1044D0000A21314B220068331F703B4829706C70F1
:1044E000FDF752FC39003948FCF7BCFB3A003900B3
:1044F0003800FCF74FF9364A3649936A08200B40DA
:104500003B439362FEF718F939003348FCF7AAFBE6
:1045100002223460F36939009343F3612F48FCF7BA
:10452000A1FB2F48FDF74CFE1C4B2E4A55331C7047
:104530005C709C70194BFA219C655C331A802122B7
:10454000164B29485E331A704900FCF703FA002322
:1045500002260893104C200030302500FBF7BBFEEC
:104560002C35031E42D01B790438B3430372036811
:1045700029001B6898470897ECE7012B00D045E716
:10458000032211003FE702229A7193E70003002003
:10459000645D00000000FECA00020020000600204A
:1045A00008060020240600207406002000040020D5
:1045B00004000020DF04000004060020780600202C
:1045C00080020020FD090000791D0000D0233E007C
:1045D00000800C40FCFFFEFF8006120000A20400D9
:1045E000600600201B1A000064060020250026003B
:1045F000A06B4535290074303436FEF7F2FC0928EB
:104600005FD800240197D04A0199130069331B78C1
:104610008B426CD30B000D339B00D3185E6B337D44
:10462000DB07D90F0291002B5FD0906B0300403362
:104630001A7811004C1EA141C9B20391002A04D07E
:10464000002204301A70FBF7A9FFBF4D11A82C00FF
:10465000E96B3434FDF75AF8237BAA6B0133DBB2E4
:104660002373743252780E210992727DA374002351
:104670006174023121751231E1741C39E1762277BF
:1046800063773000FBF738FF2900099BA077E377B9
:10469000453111AA2000FEF71BFD337DA86BBB43FB
:1046A0003375030040331A780399914203D019708F
:1046B0000430FBF773FF019B029C0133DBB20193D3
:1046C000A1E7636E11A958789A781B78487020008A
:1046D0000B708A704930FBF726FE002891D1290023
:1046E0003000FFF7C1F804008CE70294E3E7974E2F
:1046F00030002C30FBF785FE089B002B00D026E70E
:10470000002C00D023E7002800D020E7904B914DEB
:1047100018886421323001F0DFF82B005D331B78FC
:10472000C0B2834203D85B23F356013315D18A48C4
:10473000FEF7B5F9FCF710FCFCF7ECFB002187480D
:10474000FCF790FAFCF70DF87F4B1B6A002B01D0A9
:10475000FCF7C4FCFCF7DCFCF9E62B0063331A78A9
:10476000002A0ED01C70022041352C78FDF7AEFFD8
:104770000A20FCF761FB7648FDF722FD2000FDF7DB
:10478000A5FF744C6421230060331E882300300091
:104790005E331B7832300193250001F09DF8019BB8
:1047A0006235984225DD3800FDF790FF2B78002B0D
:1047B00005D1FA216A4A6B488900FDF7E5FA230022
:1047C00062331F70230070331D7823006033188814
:1047D0006421323001F080F85E342378EDB2013389
:1047E00098425DDC002D00D0B1E65B48FEF757F93A
:1047F000ADE62B78002B2BD06421300000F0E2FFD7
:10480000019B80B29842DDD80020FDF75FFF2B7836
:10481000F02B42D9EFF3108072B600221100524DF6
:10482000504E1301EB185C6CA4460024B44504D12F
:104830003C00D964996459641965022A02D0013296
:10484000002CEED0FCF7E2FA0022424B62331A80D1
:10485000404D2B0070331B78DAB20292002B27D127
:104860003948040030302C34FBF717FD002800D005
:104870006DE62000FBF711FD00281ED04468240AD5
:104880000194092C1BD8FA20019B80006421584315
:1048900000F098FFFCF7D0FA59E6002B92D1D7E749
:1048A000002D00D053E6FA2130488900FCF752F879
:1048B00039002948FEF788FB49E60190E3E72648DE
:1048C000FEF7EDF8FCF748FBFCF724FB42350B90B4
:1048D00002992248FCF7C6F92B78002B01D0FBF790
:1048E00040FF1C4B22491A004232127808978C4232
:1048F00003D8511E8A41D2B208921E4D423328007D
:104900001F70FBF74BFE28000021FDF753FE00222D
:104910000D4D03922B6A934204D0FCF7DFFB00237A
:1049200003972B621448FCF70DFA0322134EB36A67
:104930001340934224D0002B00D0D7E0B26A120C6F
:1049400021D0FA2292001EE0000200208002002006
:1049500060060020000600207406002000A204006B
:104960004C06002041070000800300206406002060
:104970004B0400000406002002001E0000800C40D2
:10498000FBF766FC42080F21FA25B36EAD000B4021
:104990009D4000232000190001F0C8F80A220023DE
:1049A00001F0C4F86B08049300230593049B059C55
:1049B0002A00C0186141002301F098F8041E00D1BC
:1049C0003C0080235B049C4200D39B4C0020FCF7FE
:1049D00040FA9A4B8022C0211C6002239848994CCF
:1049E0005201490083616250C1690B43C361226077
:1049F0003800FCF72EFA944B190052310A78002A3D
:104A000003D10F705A659A65DA658F4C636D002B80
:104A100002D08E4A526DD31AA26D8D4DD318032247
:104A2000A3652B6811200A932B6893432B60894B55
:104A3000013A1A710022DA80F36A2366FCF782F9E0
:104A4000854B864A1870042311690B4313617D4B13
:104A50001A68834B1A4009920999824AD167EFF389
:104A600010820C9272B601F073F90C98FCF7CEF933
:104A7000099A744B80211A607B4AC900D36F3B406E
:104A800009937A4BD3675622246EFF32E30A0B4018
:104A9000224013433362704B1978052902D011204C
:104AA000FCF796FA3C4201D102233362099B002BAA
:104AB00002D000236C4AD3670022664B1A71DB8850
:104AC0000A9B2B605E4B5D68954230D06848FCF7CE
:104AD00039F90322B36A134093420AD0002B52D112
:104AE000B46A240C08D0FA24A40005E08022120243
:104AF00049E7FBF7ADFB44080F223800B36E1340C3
:104B0000984000232A00190001F010F864220023C5
:104B100001F00CF86308069300230793069A079B9D
:104B2000801859412200002300F0E0FF019000208E
:104B3000FCF78FF9072342498B61BFF34F8F0222A5
:104B4000CB699343CB618023464A5B01D367BFF3B4
:104B50004F8FBFF36F8F6421019800F033FE3A4C02
:104B6000E36DC018394BE0655B6D6365394BDA88DE
:104B7000D2050BD51B7A002B08D1039B3C001E20CD
:104B8000002B08D109E080242402B5E7039B1C1EFA
:104B900003D000240420FBF79BFD019B2D485A1EE7
:104BA0009341019A2C30D31A01935D1EFBF775FBDC
:104BB00000280CD0436804381B0A5A1EAA4200D9A8
:104BC0002A009B1A190A43721B0C8172C372214876
:104BD000284D2C30FDF792F880222748274BD20031
:104BE0000260196829400A431A608022120102609B
:104BF0001A68234911408022D2010A431A60002C0E
:104C000001D1089B02931F4B029A1F4C42331A702A
:104C10002000FBF7C3FC029B002B03D000212000E7
:104C2000FDF7C8FC39001948FCF71CF80B98FDF794
:104C300067FAFDF708FA8AE4FFFFFF000800084062
:104C40000000084000E100E0000400200003002014
:104C500010E000E0000200206404002000ED00E00D
:104C600094A3F7FF04E100E008800C400E58000018
:104C700002001E00FFF0FFFFA460004098600040AB
:104C8000FF0FFFFF000600200406002000A2040022
:104C9000F7B58C480024030045339C705C701C7091
:104CA000894B8A4D1433C363894A8A49EC622C6369
:104CB0003C3000F02FF90121874B08261A6C5B6C01
:104CC0008C4601930123009222005B426946340026
:104CD000575C604659087B40034201D07F4B5940E6
:104CE000013CE4B24B08002CF3D10132082AEDD18B
:104CF000DB437B4A5B025F0AD61DD7715A0C5B0E01
:104D0000B3705323F3703371013372707371747322
:104D100038000A2100F0DCFD3319303138001973F6
:104D20000A2100F04FFD013C0700E31DF0D16D4862
:104D30006D4B421C58660123D377020000242D32AC
:104D400014705470947002003C32137002002C32C4
:104D50001370664A5C494264654A243182645A4A47
:104D600081603832C26402005C32148002005E321C
:104D7000037441620364C46044748474C474C46181
:104D800084628463046544658465147004664E4AD5
:104D9000C4664C32426602007032147002006C32FB
:104DA0001370020075321470020081321470547056
:104DB0009470454A464F6032826702008432147014
:104DC0000200803213700300082288331A70030037
:104DD00089331C7003008A331C8003008C331C60F1
:104DE000030090331C60030094333A0041491C6077
:104DF0008466C46700F08EF82B006A33EB6380236F
:104E00009B032B663C4BFF22AB662B0070331A7062
:104E10002B000833DC672B0088331C602B008C339D
:104E20001C602B0090331C602B0094331C602B0003
:104E30009C331C602B002A00A0331C60224B98324C
:104E4000743313602B00A4331C60A0222B006E6609
:104E50002A4EA83312031A6032002B1D0832DA677B
:104E60002B008033EB6633001C333A006B63AC637A
:104E70002C646C64AC64EC642C656C67AC67EC67A8
:104E80001F49204800F046F809221F4B1F499A632A
:104E900032003432DA631B4A18001A6532003832A5
:104EA0005A651B4A50369A65C8222C305A87DE62F2
:104EB0003A001C635C631C645C64986400F02AF82C
:104EC000F7BDC04600040020E45E000000020020A0
:104ED000000000203B050000B081E00F2083B8ED0A
:104EE0000400002000060020000300209C65000054
:104EF000046500001B05000000012000645F000045
:104F00000104000034020020800200201905000086
:104F10000DFFFF00030010B50800190000F05AFB58
:104F200010BD7FB5102300240293036815009E690D
:104F300012686B46009401940394B0476B460622B6
:104F40001B7920001340934202D1009B01302B605B
:104F500004B070BD009B0120934200D10530704722
:104F600010B50400034B0833036000F0CFF82000B5
:104F700010BDC0466466000010B50400FFF7F0FFE6
:104F80002000082100F03EF8200010BDF8B5140004
:104F90001E00089A069B0500099F934207D10799B6
:104FA00000F0B7F8002802D07C710020F8BD310075
:104FB000280000F0AEF80028F7D0069B3C713B605B
:104FC0000123BB71F1E770B515001C0000F0A1F8DA
:104FD000002804D00823E360023B2560237170BDE4
:104FE000F8B505000C0016001F0000F092F800282C
:104FF00007D1032F05D823683200290020005B6900
:105000009847F8BD10B500F0E0FA10BD10B50400E7
:10501000034B08330360FFF7A3FF200010BDC04619
:10502000C466000010B50400FFF7F0FF20000C215B
:10503000FFF7E8FF200010BDF7B51D00089B040036
:105040000F001600934209D0A068089A03680092E6
:105050001C6A32002B003900A047FEBD290000F079
:1050600058F80028F0D00620F7E7F0B50D0087B01B
:105070001900059307000F9E049200F04AF80C9B5C
:10508000041E16D03360049B3371002D0BDB0C9B88
:105090000E9A5D190623AA4200D0053B0024B37185
:1050A000200007B0F0BD0024AB1CF9D10123B3717F
:1050B000F6E70E9A934208D138000D9900F029F8CE
:1050C000002802D0049B7371EAE70E9AB8682900A1
:1050D000036802920D9A039601920C9A0092DC6981
:1050E000049A059BA0470400DAE7F8B507000C0016
:1050F00015001E00FFF767FF002806D1B8682A00D8
:10510000036821009F693300B847F8BD704700204D
:105110007047012310B581420FD040680023027808
:105120002A2A0AD049680B782A3B5A425341C918A7
:1051300000F0F4FA43425841C3B2180010BD000019
:1051400010B50400034B08330360FFF709FF20008C
:1051500010BDC0463C67000010B50400FFF7F0FF2B
:1051600020001821FFF74EFF200010BDF0B587B0DA
:1051700004930C9B0400150003919A4227D0E66823
:10518000F0002418002E2ED00222E368134227D00C
:1051900001211940059101211A120B4204D0039BF1
:1051A00003331DD02B689A58A0680C9903680091AE
:1051B0001B6A03991F00AA18049BB84703280FD93C
:1051C000059B002B0AD001231843C0B206E00499C6
:1051D000FFF79FFF03000620002BD0D007B0F0BDE3
:1051E000013E083CCEE70120F8E773B5069D0400B8
:1051F000002905DB511801208D4200D1053076BD14
:1052000001208E1CFBD020680095056A2000A8476D
:10521000F5E7F0B595B01D9C0B93A36807000691C8
:105220000A92DB0601D58368A3601A9B1C9A9342FD
:105230000CD138001B99FFF76CFF002806D00A9BA1
:10524000637100230593059815B0F0BD38000B99E4
:10525000FFF75FFF002819D01A9B23600A9B237178
:10526000069B002B0ADB19001A9B1C9A9C46614482
:1052700006238A4200D0053BA371E2E70023059391
:10528000069B0233DFD10123A371DCE7069B0C9060
:10529000002B03DB1C9B069A9B1A0C93002305939F
:1052A0000E9302330F93013B0D93FB680793DB00D2
:1052B000FB180993079B002B00D1E2E0002301209B
:1052C00011931293099BA568D9680A9A13950B123A
:1052D000014206D002000A9802431A980068C35897
:1052E00008901A98C3180C98002806D0984280415C
:1052F0000D9E4042B04200D1BFE00220014207D1E2
:105300000699023102D1A90700D1B8E002218A43EF
:1053100009991C9E886811AD016802961B9E009336
:1053200003950196CE690B9B0699B04762796B791C
:105330008446134308936371AE79062E02D0119907
:10534000022E06D1119B23602B79A6712371059043
:1053500079E7059B2268002B18D1002A18D121601B
:105360002A792271002906D0089B002B03D0012244
:10537000BB681342EBD06379042BE8D0079B059000
:10538000013B0793099B083B099393E7002A41D00F
:10539000914206D111AA23791279134323710598FA
:1053A000E9E7002902D16346002BF8D0089BA579D4
:1053B000032B07D90123089919422ED00221A36893
:1053C0000B422AD0002D10D1032E06D901252E42E2
:1053D0002DD00221BB680B4229D01C9B069900935B
:1053E0000B981B9BFFF701FF0500002E1FD1032D1B
:1053F00006D9013635421AD00222BB68134216D0B4
:105400001C9B119A009306991B9B0B98FFF7EDFECE
:1054100006000CE00029C9D1C1E72B1C002D00D1EA
:105420000123DDB2331C002E00D10123DEB2330094
:105430006B40DBB2032B12D90598032E06D9350039
:105440000020119B236011AB1B7923710223A571EE
:105450001D4202D1012215428DD1002077E70023A1
:105460003540EDB22360032D03D902330120A3712F
:105470006DE701231800A3717DE701230E930598C2
:105480007CE70E9B002B00D1DDE60F9B012B00D1AA
:10549000D9E601230F93079B06E7F0B58DB007000F
:1054A0001C0006910192FFF78EFD0090002863D149
:1054B000A3680293DB0601D5BB680293FB68DD009D
:1054C00003937D19039B002B00D178E0002308AAE9
:1054D0001371029A08930A9202220B93EB68012639
:1054E0001A400592012202991E400A40059904962D
:1054F0000A4304D1039B083D013B0393E2E7019A71
:10550000111E08D01A12049B002B02D00B689A5867
:105510000093019B9A18A868069903689B691E006E
:1055200008ABB04700900028E4D00B9B0793082BF2
:1055300004D1049B002B01D0AB680B9308AB1B7903
:10554000032B06D9059A002A03D10232934308AAF5
:105550001371E16808AE002917D1230007CE07C3F5
:1055600032681A602379032B06D90222134206D02F
:10557000BB68013A1342BDD100980DB0F0BD0122C5
:105580001342F9D0BB689218F4E72368089A934253
:1055900004D00023236002232371EDE7002B04D005
:1055A0002379327913432371A4E7F0680828F2D0F5
:1055B0000829F0D0FFF7ADFD0028F1D1EBE7257900
:1055C0006B1E9D41EBB20093D6E710B500F04AF890
:1055D00010BD000010B5040004481300002804D0DA
:1055E0000A000220210000E000BF10BD0000000002
:1055F000084B10B50400002B02D0002100E000BFD2
:10560000054B1868836A002B00D09847200000F0F3
:10561000B9F8C046000000006867000070B50026B9
:105620000C4D0D4C641BA410A64209D1002600F0BD
:1056300083FB0A4D0A4C641BA410A64205D170BD21
:10564000B300EB5898470136EEE7B300EB589847A4
:105650000136F2E78C0000208C0000208C00002036
:105660009400002010B5034B0100186800F00CF8FE
:1056700010BDC0462000002003008218934200D1D4
:10568000704719700133F9E770B50500002910D093
:105690000C1F2368002B00DAE418280000F048F8FB
:1056A0001D4A1368002B05D163601460280000F0C8
:1056B00047F870BDA34208D9216860188342F3D12E
:1056C00018685B6841182160EEE71A005B68002BE0
:1056D00001D0A342F9D911685018A0420BD120681B
:1056E0000918501811608342E0D118685B684118AE
:1056F00011605360DAE7A04202D90C232B60D5E792
:1057000021686018834203D118685B6841182160E2
:1057100063605460CAE7C046AC06002002780B788C
:10572000002A03D0013001319A42F7D0D01A7047D5
:1057300010B5024800F00CF810BDC046B0060020BD
:1057400010B5024800F005F810BDC046B0060020B4
:105750007047704730B500240139A24201D10020C2
:1057600005E0035D01340D5DAB42F6D0581B30BD42
:10577000002310B59A4200D110BDCC5CC454013353
:10578000F8E70000FEE7C04602B471464908490048
:10579000095649008E4402BC7047C04602B47146A7
:1057A00049084900095C49008E4402BC7047C04664
:1057B00003B47146490840004900095A49008E4423
:1057C00003BC7047002243088B4274D303098B4209
:1057D0005FD3030A8B4244D3030B8B4228D3030CC1
:1057E0008B420DD3FF22090212BA030C8B4202D363
:1057F0001212090265D0030B8B4219D300E0090A8B
:10580000C30B8B4201D3CB03C01A5241830B8B4293
:1058100001D38B03C01A5241430B8B4201D34B037C
:10582000C01A5241030B8B4201D30B03C01A5241E1
:10583000C30A8B4201D3CB02C01A5241830A8B4266
:1058400001D38B02C01A5241430A8B4201D34B024F
:10585000C01A5241030A8B4201D30B02C01A5241B3
:10586000CDD2C3098B4201D3CB01C01A5241830967
:105870008B4201D38B01C01A524143098B4201D3A1
:105880004B01C01A524103098B4201D30B01C01ACC
:105890005241C3088B4201D3CB00C01A5241830846
:1058A0008B4201D38B00C01A524143088B4201D373
:1058B0004B00C01A5241411A00D2014652411046D3
:1058C0007047FFE701B5002000F0F0F802BDC046C8
:1058D0000029F7D076E7704703460B437FD40022B8
:1058E00043088B4274D303098B425FD3030A8B4274
:1058F00044D3030B8B4228D3030C8B420DD3FF22DE
:10590000090212BA030C8B4202D31212090265D0AB
:10591000030B8B4219D300E0090AC30B8B4201D35E
:10592000CB03C01A5241830B8B4201D38B03C01AA5
:105930005241430B8B4201D34B03C01A5241030B1C
:105940008B4201D30B03C01A5241C30A8B4201D3CD
:10595000CB02C01A5241830A8B4201D38B02C01A78
:105960005241430A8B4201D34B02C01A5241030AEF
:105970008B4201D30B02C01A5241CDD2C3098B42D4
:1059800001D3CB01C01A524183098B4201D38B0151
:10599000C01A524143098B4201D34B01C01A5241F4
:1059A00003098B4201D30B01C01A5241C3088B4239
:1059B00001D3CB00C01A524183088B4201D38B0024
:1059C000C01A524143088B4201D34B00C01A5241C6
:1059D000411A00D201465241104670475DE0CA0F9D
:1059E00000D04942031000D34042534000229C465D
:1059F00003098B422DD3030A8B4212D3FC22890167
:105A000012BA030A8B420CD3890192118B4208D33C
:105A1000890192118B4204D389013AD0921100E09E
:105A20008909C3098B4201D3CB01C01A52418309B2
:105A30008B4201D38B01C01A524143098B4201D3DF
:105A40004B01C01A524103098B4201D30B01C01A0A
:105A50005241C3088B4201D3CB00C01A5241830884
:105A60008B4201D38B00C01A5241D9D243088B42DA
:105A700001D34B00C01A5241411A00D2014663467D
:105A800052415B10104601D34042002B00D54942E1
:105A9000704763465B1000D3404201B5002000F020
:105AA00005F802BD0029F8D016E770477047C046D8
:105AB0001C2101231B04984201D3000C10391B0A3E
:105AC000984201D3000A08391B09984201D3000902
:105AD000043902A2105C40187047C0460403020259
